:020000040800F2
:10000000003D0020793B0008694A0108653B000873
:10001000653B0008653B0008653B000800000000E8
:10002000000000000000000000000000313C00085B
:10003000653B000800000000D93B0008BDEF000848
:10004000DD3D0008DD3D0008DD3D0008DD3D000828
:10005000DD3D0008DD3D0008DD3D0008DD3D000818
:10006000DD3D0008DD3D0008DD3D0008DD3D000808
:10007000DD3D0008DD3D0008DD3D0008DD3D0008F8
:10008000DD3D0008DD3D0008DD3D0008DD3D0008E8
:10009000DD3D0008DD3D0008DD3D0008DD3D0008D8
:1000A000DD3D0008DD3D0008DD3D0008DD3D0008C8
:1000B000DD3D0008DD3D0008DD3D0008DD3D0008B8
:1000C000DD3D0008DD3D0008DD3D0008DD3D0008A8
:1000D000DD3D0008DD3D0008DD3D0008DD3D000898
:1000E000DD3D0008DD3D0008DD3D0008DD3D000888
:1000F000DD3D0008DD3D0008DD3D0008DD3D000878
:10010000DD3D0008DD3D0008DD3D0008DD3D000867
:10011000DD3D0008DD3D0008DD3D0008DD3D000857
:10012000DD3D0008DD3D0008DD3D0008DD3D000847
:08013000DD3D0008DD3D000883
:1001380080F0004002E000BF81F0004142001FBF94
:100148005FEA410392EA030F7FEA226C7FEA236C9D
:100158006AD04FEA1262D2EB1363C1BFD218414092
:1001680048404140B8BF5B42192B88BF704710F028
:10017800004F40F4000020F07F4018BF404211F0CB
:10018800004F41F4000121F07F4118BF494292EA33
:10019800030F3FD0A2F1010241FA03FC10EB0C005F
:1001A800C3F1200301FA03F100F0004302D54942EC
:1001B80060EB4000B0F5000F13D3B0F1807F06D399
:1001C80040084FEA310102F10102FE2A51D2B1F191
:1001D800004F40EBC25008BF20F0010040EA030086
:1001E8007047490040EB0000013A28BFB0F5000F06
:1001F800EDD2B0FA80FCACF1080CB2EB0C0200FABC
:100208000CF0AABF00EBC25052421843BCBFD0400A
:100218001843704792F0000F81F4000106BF80F484
:1002280000000132013BB5E74FEA41037FEA226C47
:1002380018BF7FEA236C21D092EA030F04D092F012
:10024800000F08BF0846704790EA010F1CBF002046
:10025800704712F07F4F04D1400028BF40F00040A3
:10026800704712F100723CBF00F50000704700F0C3
:10027800004343F0FE4040F4000070477FEA2262EA
:1002880016BF08467FEA23630146420206BF5FEABB
:10029800412390EA010F40F4800070474FF00003BB
:1002A80004E000BF10F0004348BF40425FEA000C82
:1002B80008BF704743F0964301464FF000001CE02A
:1002C80050EA010208BF70474FF000030AE000BF80
:1002D80050EA010208BF704711F0004302D54042BE
:1002E80061EB41015FEA010C02BF84460146002030
:1002F80043F0B64308BFA3F18053A3F50003BCFA4B
:100308008CF2083AA3EBC25310DB01FA02FC6344F7
:1003180000FA02FCC2F12002BCF1004F20FA02F2FE
:1003280043EB020008BF20F00100704702F12002F1
:1003380001FA02FCC2F1200250EA4C0021FA02F252
:1003480043EB020008BF20EADC7070474FF0FF0C57
:100358001CEAD0521EBF1CEAD15392EA0C0F93EA52
:100368000C0F6FD01A4480EA010C400218BF5FEAF4
:1003780041211ED04FF0006343EA501043EA511167
:10038800A0FB01310CF00040B1F5000F3EBF490061
:1003980041EAD3715B0040EA010062F17F02FD2A65
:1003A8001DD8B3F1004F40EBC25008BF20F0010048
:1003B800704790F0000F0CF0004C08BF49024CEA5F
:1003C800502040EA51207F3AC2BFD2F1FF0340EAF1
:1003D800C250704740F400004FF00003013A5DDC62
:1003E80012F1190FDCBF00F000407047C2F10002A3
:1003F800410021FA02F1C2F1200200FA02FC5FEA90
:10040800310040F1000053EA4C0308BF20EADC70D9
:10041800704792F0000F00F0004C02BF400010F44B
:10042800000F013AF9D040EA0C0093F0000F01F0F8
:10043800004C02BF490011F4000F013BF9D041EA1A
:100448000C018FE70CEAD15392EA0C0F18BF93EA1C
:100458000C0F0AD030F0004C18BF31F0004CD8D146
:1004680080EA010000F00040704790F0000F17BFCD
:1004780090F0004F084691F0000F91F0004F14D013
:1004880092EA0C0F01D142020FD193EA0C0F03D16B
:100498004B0218BF084608D180EA010000F000406E
:1004A80040F0FE4040F40000704740F0FE4040F449
:1004B800400070474FF0FF0C1CEAD0521EBF1CEAE8
:1004C800D15392EA0C0F93EA0C0F69D0A2EB030206
:1004D80080EA010C49024FEA402037D04FF08053A0
:1004E80043EA111143EA10130CF000408B4238BF65
:1004F8005B0042F17D024FF4000C8B4224BF5B1A73
:1005080040EA0C00B3EB510F24BFA3EB510340EAC0
:100518005C00B3EB910F24BFA3EB910340EA9C006E
:10052800B3EBD10F24BFA3EBD10340EADC001B01DE
:1005380018BF5FEA1C1CE0D1FD2A3FF650AF8B4282
:1005480040EBC25008BF20F0010070470CF0004C8F
:100558004CEA50207F32C2BFD2F1FF0340EAC250BA
:10056800704740F400004FF00003013A37E792F07B
:10057800000F00F0004C02BF400010F4000F013AD9
:10058800F9D040EA0C0093F0000F01F0004C02BFD4
:10059800490011F4000F013BF9D041EA0C0195E73D
:1005A8000CEAD15392EA0C0F08D142027FF47DAFD6
:1005B80093EA0C0F7FF470AF084676E793EA0C0FC6
:1005C80004D14B023FF44CAF08466EE730F0004CC4
:1005D80018BF31F0004CCAD130F000427FF45CAF54
:1005E80031F000437FF43CAF5FE700BF4FF0FF3CC2
:1005F80006E000BF4FF0010C02E000BF4FF0010C15
:100608004DF804CD4FEA40024FEA41037FEA226CDD
:1006180018BF7FEA236C11D001B052EA530C18BFFF
:1006280090EA010F58BFB2EB030088BFC81738BF64
:100638006FEAE17018BF40F0010070477FEA226C52
:1006480002D15FEA402C05D17FEA236CE4D15FEA4E
:10065800412CE1D05DF8040B704700BF8446084682
:100668006146FFE70FB5FFF7C9FF002848BF10F143
:10067800000F0FBD4DF808EDFFF7F4FF0CBF012088
:1006880000205DF808FB00BF4DF808EDFFF7EAFF12
:1006980034BF012000205DF808FB00BF4DF808EDCD
:1006A800FFF7E0FF94BF012000205DF808FB00BFC2
:1006B8004DF808EDFFF7D2FF94BF012000205DF848
:1006C80008FB00BF4DF808EDFFF7C8FF34BF012055
:1006D80000205DF808FB00BF4FEA4002B2F1FE4F70
:1006E8000FD34FF09E03B3EB12620DD94FEA0023EC
:1006F80043F0004310F0004F23FA02F018BF4042C5
:1007080070474FF00000704712F1610F01D14202AB
:1007180005D110F0004008BF6FF0004070474FF05F
:10072800000070477BB972B90029BEBF00204FF0A6
:10073800004106E008BF00281CBF6FF000414FF0E1
:10074800FF3000F0F3B9ADF1080C6DE904CE0029D3
:1007580009DB002B1ADB00F061F8DDF804E0DDE9C5
:10076800022304B07047404261EB4101002B1BDBC0
:1007780000F054F8DDF804E0DDE9022304B040425B
:1007880061EB4101524263EB43037047524263EB12
:10079800430300F043F8DDF804E0DDE9022304B088
:1007A800404261EB41017047524263EB430300F062
:1007B80035F8DDF804E0DDE9022304B0524263EBCA
:1007C8004303704753B94AB9002908BF00281CBF22
:1007D8004FF0FF314FF0FF3000F0A8B9ADF1080C31
:1007E8006DE904CE00F01AF8DDF804E0DDE9022333
:1007F80004B07047430803F05533C01A830803F068
:10080800333300F03330184400EB101000F00F3091
:1008180000EB002000EB0040000E70472DE9F04788
:100828000646DDF820E00846B4460D46002B4DD1BB
:100838008A4214466BD9B2FA82F242B1C2F120035D
:10084800954026FA03F394401D4306FA02FC260C51
:10085800A7B2B5FBF6F14FEA1C4306FB115543EA74
:10086800054301FB07F0984209D9E31801F1FF3568
:1008780080F0FC80984240F2F980023923441B1A28
:100888001FFA8CFCB3FBF6F006FB10334CEA034C62
:1008980000FB07F363450AD914EB0C0C00F1FF3594
:1008A80080F0E680634540F2E380A444023840EAE1
:1008B8000140ACEB030C0021BEF1000F04D02CFA70
:1008C80002F30022CEE90032BDE8F0878B4208D956
:1008D800BEF1000F01D0CEE9006100210846BDE855
:1008E800F087B3FA83F1174600294CD1834202D32B
:1008F800B24200F20A81B6EB070C60EB0303012059
:100908001D46BEF1000FDFD0CEE900C5DCE7002AA6
:1009180000F094801A46B4FA84F3002B40F0AA80C1
:100928000B1B270CA6B201214FEA1C40B3FBF7F5BD
:1009380007FB153340EA034306FB05F0984207D945
:10094800E31805F1FF3802D2984200F2E3804546E9
:100958001B1A1FFA8CFCB3FBF7F007FB10334CEAA9
:10096800034C06FB00F3634508D914EB0C0C00F1AB
:10097800FF3602D2634500F2CA803046ACEB030C66
:1009880040EA054098E7C1F120058B4022FA05FCB2
:100998004CEA030C00FA01F426FA05F3E84002FADF
:1009A80001F923434FEA1C4206FA01FAB0FBF2F7B9
:1009B8001FFA8CF602FB17001C0C44EA004407FBE4
:1009C80006F0A0420AD91CEB040407F1FF3880F0B6
:1009D8009A80A04240F29780023F6444241A9BB256
:1009E800B4FBF2F002FB104443EA044300FB06F6B2
:1009F8009E4209D91CEB030300F1FF3480F081808B
:100A08009E427ED90238634440EA0740A0FB09743D
:100A18009B1BA3423E46A04663D360D0BEF1000FA5
:100A28000AD0BAEB060263EB080303FA05F5CA40DD
:100A38001543CB40CEE90053002145E7730843EA4C
:100A4800C1734A08190C41EA02414FEAC67C9BB2BD
:100A5800B2FBF4F02646254627461F2243EA014307
:100A6800B1FBF4F15B1B41EA00415DE7294606E76B
:100A780028461CE71A46C3F120019C4026FA01F3D8
:100A880020FA01F190400343270C06FA02FCB1FB5F
:100A9800F7F0A6B207FB1015190C41EA054100FB57
:100AA80006F58D423BD9611801D28D4220D8491BE9
:100AB8000138B1FBF7F5A84605FB06F507FB181149
:100AC8009BB243EA0143AB4227D2E31808F1FF3156
:100AD800C8D2AB42C6D2A8F102012344C2E7BA4544
:100AE8009CD2B7EB090664EB0C040138A04695E7E5
:100AF800651B29440238B1FBF7F5A84605FB06F546
:100B0800DCE7204680E7474668E70846F9E6A4445C
:100B1800023833E7023D23441AE74146A2E7491B5E
:100B2800B1FBF7F5A84605FB06F5C7E7704700BF18
:100B380010F8012B11F8013B012A28BF9A42F7D07F
:100B4800D01A7047034613F8012B002AFBD1181A54
:100B5800013870471FB504460DF10F010DF10E0065
:100B680013F0DAFF9DF80F30044A00930448234637
:100B7800032113F09DFD04B010BD00BFA09B010828
:100B8800708D0108F8B500AF6C46FD698CB0174E42
:100B98000993CDE9056001F00100CDE907026A4635
:100BA800C1F3400107230A9142F8103F104800237F
:100BB8004FF4635101F0ACFFA546ADB188B00D4BC1
:100BC8000593397E0C4B06936A464FF40073ADF8D3
:100BD8001C300905094B42F8103F41F4E65104481E
:100BE8002B4601F095FFA546BD46F8BDC49B0108FC
:100BF800708D0108A5AE0108F79B010803000001EC
:100C08002DE9F043774A9DB010685168764A02AFE3
:100C18003B1D03C31068516807F10C0303C3734BF2
:100C280007F1200203F1100C07F1040807F10C0684
:100C3800154618685968144603C4083363452246A4
:100C4800F7D14FF6FF730024BB82694BC7F81640F3
:100C5800C7F81A40FC83BB61DFF89891484617F043
:100C6800B2F80346C8B96C46D9F8002088B0624982
:100C7800CDE907124FF40072ADF8242002AA5F49AB
:100C880042F8101F5E484FF4E25101F041FFA546BB
:100C980000206C37BD46BDE8F083052003F03EFC1C
:100CA800031E05DA574A5648012113F0F8FCEFE70E
:100CB80003F006FE031E01DA534AF4E7204603F068
:100CC8002DFD07F1140003F0E5FD504803F0F2FD97
:100CD8004F4887F84440C7E90D55C7F840803E6340
:100CE80011F0B8FE18F8011B4A48013411F0B2FEA1
:100CF800082CF7D1484811F0ADFE002416F8011B66
:100D08004448013411F0A6FE082CF7D1434811F0ED
:100D1800A1FE002415F8011B3E48013411F09AFE8B
:100D2800102CF7D13E4811F0A7FE3E4A3448032163
:100D380013F0ADFC00213C4810F0DEFB3B4A304884
:100D4800032113F0A4FC002407F1300003F002FC97
:100D5800031E1EDB364A2A48364C032113F097FC43
:100D6800238887F848300122002307F148011046FC
:100D780003F004FD10F10B0F034621D12E4A204841
:100D8800012113F08CFC00214CF2503010F0B4FB20
:100D9800E6E701341F2C08D11E230093274A184880
:100DA8002346012113F084FC72E7254A1448009475
:100DB800012113F07DFC0021224810F09DFBC3E7C0
:100DC800002801DA204A6EE72388204A0C480321CC
:100DD80013F065FC2388FE2B94BF01330023238086
:100DE800D1E700BF9C9D0108608E0108A59D010800
:100DF8008D0B0008A4880108019C0108030000016C
:100E0800708D0108179C0108359C01085D0B0008CE
:100E18004E9C01085B9C0108609C01086D9C0108C0
:100E28007A9C01087C9C0108A08601009A9C010814
:100E3800229D0108042200203B9D0108B49C010862
:100E4800ED9C0108E0930400629D01087A9D010869
:100E5800B2F5802F2DE9F0410ED33949394A3A4885
:100E680040F2132312F0C0FF384812F0BDFF40F2E1
:100E78001321344812F0AFFF042A0CD83449314A00
:100E8800314840F21A2312F0AFFF324812F0ACFF9B
:100E980040F21A21EDE7043ACD1D114425F007056B
:100EA80021F00706731B102B4FEAD3070CD82A49E9
:100EB800244A254840F2232312F096FF254812F0D1
:100EC80093FF40F22321D4E7B7FA87F2C2F1240452
:100ED800A4000734E408631C4FF00008BB42056017
:100EE800AF60C5F80C800CD91C49164A16484FF457
:100EF8000E7312F079FF174812F076FF4FF40E7157
:100F0800B7E7C2F120024146920005F1100017F040
:100F180044F9630043F001036B8005EBC4023B1BFB
:100F28005900A5F80080518025F83440338001230A
:100F3800738021462846BDE8F04112F0C1BE00BFCB
:100F4800B19E0108C69D0108FA9D0108C79E0108C7
:100F5800DE9E0108FF9E0108189F0108419F0108B5
:100F68002DE9F04F054691B0A8070E46049200936C
:100F780040F0DA81002D47D101F00706341DC6F193
:100F88000806049BDDF868A003F004030293049BA1
:100F9800C3F3C20301330593009B00275A1E4FF089
:100FA80004094FF0FF3301930397B846BB464B46FD
:100FB8000DB1009921600598002800F3CF8098486A
:100FC8000099814203D397488142C0F0C7800499B1
:100FD8004FF0000E01F0020C601B8008BCF1000FFE
:100FE80000F0C4807F2840F2C1808F498F4A904822
:100FF8004FF41F7312F0F8FE8E4812F0F5FE4FF40E
:101008001F718A4812F0E7FE072904D86FF01B0009
:1010180011B0BDE8F08F2C1DB3E77A285CD84B28B7
:101028000FD8472858D829282ED8252851D053D842
:10103800232818BF20280CBF4FF0010B4FF0000BDE
:1010480074E04C382E2847D8DFE800F07046464652
:101058004646464646464646494646464646464625
:10106800465746494957575770496D46704618497B
:1010780018464683804946464946800000204FF07E
:10108800000B4FF0040936E02A38C0B2012101FAFA
:1010980000F010EA0E0F49D110F0625C2DD110EA71
:1010A800010B43D06046013C4C44B4FBF9F409FB06
:1010B80004F425B1A3EB050CA444B445A6D8002834
:1010C80000F095800599013905915AF8041B0091A3
:1010D8006EE70199013901914FF0000B26E012F8F3
:1010E800010C6C2837D112F8023C00206C2B834687
:1010F800C7D14FF008094B46D5E70AF1070A2AF08D
:1011080007030734D3E900AB24F0070435B1069888
:101118002044B0423FF67AAFC4E900AB03F1080AB5
:1011280008344FF0000B4FF008094B4612F8010F36
:10113800002800F08380BBF1000F7FF46EAF2528F4
:10114800F4D1019B013301934FF0010B4FF00409D7
:10115800EBE7584693E700208346A4E704998907FC
:1011680028D54FF0010E4FF0020C35E7B8F10F0FFC
:101178000CD92D492D4A2E4840F2812312F034FE15
:101188002D4812F031FE40F281213AE7EDB108F125
:1011980040010DEB010C01990CF8200C0CF8101C07
:1011A800BEF1000F0DD060F07F000CF8200C013765
:1011B80008F10108C5F10801043406914FF6DA7EFA
:1011C800B4E7039801300390F2E7BEF1000F01D0B5
:1011D8000136EDE7029802360028E9D10098CDE9FA
:1011E8000623FFF7AFFCDDE906230644E0E7042BFE
:1011F80008D10AF1040015B1DAF8001021600434AE
:10120800824693E70AF1070323F0070303F1080A6C
:101218001DB1D3E90001C4E900010834082385E7BA
:1012280064850108ECD90108B6CA01086C9F010859
:10123800FA9D01089A9F0108BB9F0108631BB3F53B
:10124800806F0CD33A493B4A3B4840F2D22312F014
:10125800CBFD3A4812F0C8FD40F2D221D1E61DB9C3
:10126800A6F10804E018D3E69B0828602B70029BBF
:10127800B3B1039BEB70AF702FB108AB0022C5F17F
:10128800010C90450FD1C5F101030DF120094FF074
:10129800000A01930DF1300BD04516D1601BB7E65B
:1012A800039B6B70E7E793F900E01878BEF1000F35
:1012B80008DA0CEB040EB6453FF6A8AE00F07F0046
:1012C80004F8010B01330132DBE71FB199F9002063
:1012D800002A17DB029BD3B11AF80B2004F8012B64
:1012E8000022019B18191044B0423FF68FAE99F8BE
:1012F800000004F8010B00990392204616F03FFF06
:10130800039A14440AF1010A09F10109C4E799F89A
:10131800002055F822300093029B45F822300098AF
:10132800FFF710FC421CDCE76FF00D0070E600BF11
:10133800B6CA01086C9F0108FA9D0108D59F0108EB
:101348002DE9F04F95B000AFC7E9083205468A4647
:1013580058B99549954A964840F2993312F044FD98
:1013680040F29931914812F036FD49B90378467830
:10137800807800EB83002844564521D8A0EB050A65
:10138800BB6F95F80280BC6F03F00103FB60EB783C
:10139800FB61B8F1000F0CBF002404F0010413B185
:1013A800BB6F9A0715D4A4B97B6A1BB13A6A514638
:1013B80028469847564630465437BD46BDE8F08F14
:1013C800441C2046FFF7BEFB013020440AF1010A05
:1013D800D2E7BB6FC3F3C003BB612B787B619B0073
:1013E800BB606B683B617B6905EB830B7B6A002BF9
:1013F80071D15646D844ACB17C6A1BF8013B55F80C
:101408002300FFF79FFBFB6F01303BB1D7F880301B
:101418009C423EBFFB6F23F814000134C3450644C9
:10142800EBD1D846BB6F13F0050F0CBF4FF0020B82
:101438004FF0010B4FF00009FB699945BBD298F8B2
:10144800013055F823A05B4B9A4508F10208C0F01B
:101458007681594BBA699A452CBF002301230AB3F8
:1014680018F8021C38697B6212F07DFC7B6AC8B1EF
:10147800EA468AB0514B05933B696A46CDE9063185
:101488004FF40073ADF820304D4B42F8103F4D48F3
:1014980000234FF4125101F03BFB023ED54609F1FF
:1014A8000109C9E723B1FB682BB9A6EB0B06F6E7E0
:1014B800BB6F9B07F3D55046FFF744FBFB6F43B167
:1014C800D7F880309C423FBFFA6F431C22F8143093
:1014D80001340644E3E7002C5AD1B8F1000F5DD07F
:1014E800BB6F58075DD5C14607F1400042465946D3
:1014F80016F045FEC3440023FA69934264D36B781F
:10150800BA6FBB61E118BB6F69709B0702F00502F7
:1015180054BF4FEA59030023042A0CBF4A4600224D
:10152800AA70EB703A6AB9687B6A28469847061E23
:10153800FFF641AF7B692B70BB696B70FB69EB7081
:1015480049463A6A7B6A85F8028007F14000984765
:10155800B0F10009C0F2EF80BB68FA6903EB420101
:1015680041443A6A7B6AAAEB010158469847002829
:10157800C0F2E380B14409EB00064FF0000BA3452D
:10158800C0F0A48000213A6A7B6A0846984712E7AF
:10159800444607F130004FF00009A7E74446C1462A
:1015A800A8E7A146A6E700BFEC9F01086C9F0108C9
:1015B800FA9D010864850108ECD9010807A0010813
:1015C80004000001E08C01089BF80160614855F8AF
:1015D80026209BF800108242C0F0B7805E48824205
:1015E800B8692CBF0022012238B13869C7E9002345
:1015F80012F0B9FBD7E9002350BB6AB3FA685AB1B5
:101608000F2C38D95549564A564840F2434312F0F0
:10161800EBFB40F24341A5E6BA6F510718D5B9F183
:101628000F0F09D950494E4A4E4840F2464312F02E
:10163800DBFB40F2464195E609F1280207F1280054
:1016480009F1010102EB000909F8106C5FFA81F950
:101658000BF1020B01334FE7BA6F920715D50F2C28
:1016680009D93E493E4A3F4840F24D4312F0BCFB7F
:1016780040F24D4176E604F1280207F12800611C8A
:10168800141804F8206CCCB2E2E7B9F10F0F09D9AD
:101698003549334A33484FF48A6312F0A5FB4FF4B7
:1016A8008A615FE609F1280207F1280C09F10100B7
:1016B800944407F1500252FA80F009F102090CF83B
:1016C800101C5FFA89F900F8106CC1E707F13003C4
:1016D80013F80B20FB6F55F822A087F82F2033B39F
:1016E800D7F880309B4522D2FB6F33F81B803A6ACB
:1016F8007B6A012107F12F009847B0F100091ADB36
:10170800B8F1000F06D15046FFF71CFA00F10108A6
:101718001FFA88F83A6A7B6A41465046984700287B
:1017280008DBB14409EB00060BF1010B27E74FF08A
:101738000008DCE781464E463DE606463BE6BB69C7
:10174800002B3FF4B5AE00238AE6BA69002A83D09D
:1017580000224AE764850108ECD90108AAA001081B
:101768006C9F0108FA9D0108C9A00108014B186087
:10177800704700BF6803002010B520220C460021E6
:1017880016F00BFDE268C261A268826122680262FB
:1017980062684262002181622169034622B1501EBB
:1017A800104208BF41F0010119610122002103F133
:1017B8002C0016F02AFB48B105490648064A2F2393
:1017C80012F012FB04482F2112F005FB10BD00BFD8
:1017D80020A10108FA9D0108FAA001082DE9F04F9F
:1017E80089B0CDE90123436A00268B4204468A4624
:1017F80005960796B1464AD300F114074FF0100B2F
:10180800EFF3118300938BF31288BFF36F8F384681
:1018180010F078F900287CD03846DDF8008010F008
:1018280095F9079A2AB13146204612F0C4FB0023E5
:10183800079306A9204612F0E4FA06995145054691
:101848002ED32268236A13F8221021F0030103F82B
:10185800221003EB820921685246204612F0F6FA5C
:10186800E3682060984216D00025384610F058F9F1
:1018780060B388F31188BFF36F8F059929B1A36905
:101888000BB12046984700230593002DB8D1484650
:1018980009B0BDE8F08F236943F008032361E3E74B
:1018A80018B1204612F0EBFADFE7DDE90132134305
:1018B80044D0039116F013FB039900283ED1009BF6
:1018C800002B3BD1384610F02BF968B91F4A204944
:1018D80020484FF49A7312F087FA39461E4812F0DE
:1018E80083FA4FF49A711FE085F31188BFF36F8F65
:1018F800DDE9012304F12C000EF04AFA0546EFF366
:1019080011888BF31288BFF36F8F384610F0FAF8FE
:1019180068B90E4A11490F48882312F065FA39460A
:101928000F4812F061FA8821084812F054FA384634
:10193800B5FA85F510F00AF96D0996E707AB05AA1F
:101948002046266812F0B8FA05468EE729A1010854
:1019580081A10108FA9D010898A1010856A1010872
:101968006BA101082DE9F0410446C36908460E46FB
:1019780098478046EFF31187102383F31288BFF34B
:101988006F8F04F1140010F0BDF870B91C4A1D499E
:101998001D48882312F028FA04F114011B4812F09C
:1019A80023FA8821164812F016FA04F1140010F0F0
:1019B800CDF8337843F0010333706168424620461E
:1019C80012F044FA6060204612F011FB04F1140092
:1019D80010F0A6F870B90A4A0D490B484FF49A73EB
:1019E80012F002FA04F114010A4812F0FDF94FF45A
:1019F8009A71D7E787F31188BFF36F8FBDE8F0813D
:101A080029A1010856A10108FA9D01086BA1010846
:101A180081A1010898A101082DE9F047044600F1C9
:101A28001407EFF31188102383F31288BFF36F8F25
:101A3800384610F067F8054668B9354A35493648DA
:101A4800882312F0D1F93946344812F0CDF98821AB
:101A58002F4812F0C0F9384610F078F82369A668C4
:101A6800180702D46368B34200D2636A9B1B002B39
:101A780042D0226A12F8263013F0030302EB860ADA
:101A88003AD0022B04D152F826005FEA900907D118
:101A980012F82630D9071FD4E36950469847814683
:101AA800A1684A46204612F0D1F94946A06020466E
:101AB80012F0D9F9384610F033F800BB144A184927
:101AC80015484FF49A7312F08FF93946154812F0F9
:101AD8008BF94FF49A71BBE743F0020302F8263002
:101AE8005046E369A568984729460246204612F001
:101AF800ADF90025A060DDE71D469A46DAE788F3D0
:101B08001188BFF36F8F002D8BD15046BDE8F08749
:101B180029A1010856A10108FA9D01086BA1010835
:101B280081A1010898A101082DE9F0410446C36983
:101B380008460D4698470746EFF31188102383F3AC
:101B48001288BFF36F8F04F114000FF0DBFF70B938
:101B5800294A2A492A48882312F046F904F114012F
:101B6800284812F041F98821234812F034F904F189
:101B780014000FF0EBFF2B7823F001032B7023697F
:101B88009B0705D5E268236A03EB82039D4224D1B3
:101B98002B7823F002032B70D4E90231994204D147
:101BA8003A46204612F052F9A0603946204612F013
:101BB8005AF904F114000FF0B3FF98B90E4A12490C
:101BC8000F484FF49A7312F00FF904F114010F48FB
:101BD80012F00AF94FF49A71C6E72B6867F39F036E
:101BE8002B60E6E788F31188BFF36F8F04F12C00B0
:101BF800BDE8F0410EF048B829A1010856A1010836
:101C0800FA9D01086BA1010881A1010898A10108AA
:101C180070B5044600F11405EFF31186102383F321
:101C28001288BFF36F8F28460FF06CFF68B91B4A04
:101C38001B491C48882312F0D7F829461A4812F085
:101C4800D3F88821154812F0C6F828460FF07EFF11
:101C58002369A0681B0702D46368834213D2646AAD
:101C6800241A28460FF05CFF78B90C4A0F490D4832
:101C78004FF49A7312F0B8F829460D4812F0B4F8E8
:101C88004FF49A71DEE71C1AEBE786F31188BFF36D
:101C98006F8F201E18BF012070BD00BF29A1010849
:101CA80056A10108FA9D01086BA1010881A101084C
:101CB80098A10108034A536823F0020353600020E7
:101CC800704700BF002004E010B5EFF31184102323
:101CD80083F31288BFF36F8F1C480FF013FF68B9A6
:101CE8001B4A1C491C48882312F07EF817491B48D8
:101CF80012F07AF88821164812F06DF813480FF0A0
:101D080025FF174B1A683AB9164A116841F48071D1
:101D180011601168C905FCD51A680C4801321A60AF
:101D28000FF0FEFE68B90A4A0F490B484FF49A7340
:101D380012F05AF805490D4812F056F84FF49A7106
:101D4800D9E784F31188BFF36F8F10BDF00E002020
:101D580029A1010856A10108FA9D01086BA10108F3
:101D6800EC0E00200004005881A1010898A1010888
:101D780010B5EFF31184102383F31288BFF36F8F2C
:101D880026480FF0BFFE68B9254A26492648882309
:101D980012F02AF82149254812F026F8882120480F
:101DA80012F019F81D480FF0D1FE214B1A682ABB12
:101DB800BFF35B8F1F4B012253E8001F002903D19B
:101DC80043E800200028F7D1BFF35B8F04D11A4AFB
:101DD8001A48022112F05BFC10480FF0A1FEC0B9AE
:101DE8000F4A174910484FF49A7311F0FDFF0B4939
:101DF800144811F0F9FF4FF49A71D0E7012A01BF96
:101E080011490A6822F480720A601A68013A1A6055
:101E1800E2E784F31188BFF36F8F10BDF00E002046
:101E280029A1010856A10108FA9D01086BA1010822
:101E3800EC0E0020E80E0020ADA10108C08D0108BD
:101E480081A1010898A1010800040058084B1A68EC
:101E580042F400721A601A6842F480621A601A68C2
:101E680042F480721A60034B034A1A60704700BF3D
:101E780000400058D405002000093D002DE9F04F2E
:101E880004468BB000F11407384615F0B7FFA06A76
:101E98008368DB689847E06250B9A24AA2480121EA
:101EA80012F0F9F86FF0150528460BB0BDE8F08F71
:101EB800A06A8368DB6898470368013B1F2B01D938
:101EC8009A4AEBE7E368B3F5803F08D94FF48032CC
:101ED80000929548964A012112F0EAFBE2E7A06ACF
:101EE800216807AA14F016FF08B1924AD6E7E568F8
:101EF8002DB1089BB5FBF3F203FB12550DB18E4AC9
:101F0800CCE7238A012B01D88C4AC7E7E36A0295FC
:101F180093F805804FF0FF324FF0FF3338460DF04D
:101F2800F5FCE06A082112F0DAF8A9460646238A89
:101F38001FFA85FA534545D8238A4B4500F002819C
:101F480053450BD1029908234246891B204612F0BB
:101F58006AF818B902A9204612F090F802A920469A
:101F680012F0E5F80546002840F0EE80029961601D
:101F78004FEA11494FEA0949C4F80890A3688B420F
:101F88000ED8082303AA204612F03FF8C0B903ABC5
:101F98001A78424534D10130082803F10103F7D1FA
:101FA800636802A96FF30F032046029312F066F8E4
:101FB800E36802994246204612F035F800283EDAD6
:101FC8000546C1E0A1892B04891B13FA81F1424619
:101FD80008232046029112F026F878B102A920467B
:101FE80012F04CF809F101090299082342462046EB
:101FF8001FFA89F912F017F800289DD0013596E7E5
:1020080003A9204612F074F8D4F804A018B9AAEB72
:1020180006016160B2E7BDF810B0BDF80E10E06AC5
:10202800C4F80890594412F05AF848445045A06042
:10203800EDD1BBF1000FEAD06FF01C0584E04DD064
:1020480063684FF6FF7906EB0308E368CDF808806C
:102058001FFA88F29B1B9A421BD33348384A032144
:1020680012F019F86168204612F017F80028A7D175
:102078006368E2686FF30F031344A3EB46036360DE
:102088006FF30F03A360204612F079F900283ED0C1
:1020980096E7082305AA4146204611F0B6FF002816
:1020A8008ED105A9204612F023F838B1BDF81430B6
:1020B8004B4503D1BDF81830002B68D0B044C4E7B5
:1020C8005B1A4246204611F0AEFF0028FFF678AFB3
:1020D80008D0E26AA36812681344A360D4E9013106
:1020E8008B42EDD86168E36801EB46029A42CDD194
:1020F800A2680B0C1B049A42C8D0204611F0CDFFF1
:1021080000287FF45DAF63686FF30F03A360E36893
:10211800A288A3EB46039A4216D1204612F0EAF8A9
:102128004EE700BF02A20108288D010824A2010879
:1021380041A201086AA2010882A2010896A2010828
:1021480008A301086FF02C0538460DF0ADFC002DF2
:102158007FF4AAAE0123A374E268238A154800928B
:102168000321154A12F0A4FA63689AB20092114842
:10217800124A1B0C032112F09BFAA3689AB2009230
:102188000C480F4A1B0C032112F092FA8CE60D4AF8
:102198000848032111F07FFF636802A96FF30F035A
:1021A8002046029311F06AFF0299204611F075FF4C
:1021B8006CE700BF288D0108B9A20108D0A2010868
:1021C800E2A20108F3A201082DE9F04F1E46837C24
:1021D80091B0CDE90021044653B9624A6248012111
:1021E80011F059FF6FF00C05284611B0BDE8F08FCB
:1021F800C56A0821284611F072FFE3680290A3EB34
:102208008003B342C0F0AA801EB1009B002B00F0EF
:10221800A5803146284611F062FFD4F80480CDF835
:102228001480074606AA05A9204611F0CBFF0546EB
:102238000028D9D1BDF81830019A934206D0DDF8AC
:10224800148063684345EDD1AEBBCDE706A92046AF
:1022580011F04EFF0028F2D0BDF81C304EB3B34247
:1022680029D14FEA1843BDF81A80DDF800B01B04E5
:102278009844E36A1B685B4203F020030393B1466A
:10228800DDF80CA0CA4528BFCA46534608AA4146ED
:10229800204611F0BAFE00284AD1524608A95846ED
:1022A80015F083FF38B9B9EB0A09D044D344E7D114
:1022B8009AE7002B98D0002F3DD1B8464FF0FF3257
:1022C8004FF0FF3304F114000DF020FB238A9D42E8
:1022D80041D0A168626808EB01039A4230D3019BA0
:1022E800ADF82030FF23009A8DF82630204633467B
:1022F800ADF82210ADF8246011F0B1FF3146074661
:10230800E06A11F0ECFEA3680344A36057B908A87B
:1023180011F0DCFE08A9204611F0DBFFB84214BF1B
:102328000746374604F114000DF0BEFB3D465BE757
:10233800C1DC054658E7029B1F441FFA87F8BDE732
:10234800204611F0F0FF204612F019F80746002841
:10235800E8D10135BAE76FF01B07E3E76FF0150521
:1023680042E700BFEEA10108288D01082DE9FF47CB
:102378001E46837CBDF830700446894690464BB9AA
:102388002848294A012111F086FE6FF00C0004B09C
:10239800BDE8F087C06A082111F0A1FEE368A3EB4D
:1023A8004003B3423AD3656801954FF0000A02AA88
:1023B80001A9204611F006FF0028E8D1BDF8083031
:1023C8004B4506D102A9204611F092FE50441FFA4F
:1023D80080FA019B62689A4219D0BA4515D9BDF8AE
:1023E8000C30C3B1BA4516D3BDF80A10B3426FF327
:1023F8000F0528BF334642462944204611F005FE02
:102408000028C4D1BDF80C00C1E71D46CFE7BDF8D0
:1024180008304B45E3D06FF00100B8E76FF01500C6
:10242800B5E700BF288D0108EEA1010810B50F49D6
:102438000F4888B0002215F008FE00220023CDE9DD
:10244800062300240E23CDE90334CDE90144094BCA
:10245800094900944FF4006208480EF067F90849EA
:1024680006480EF0DFF8204608B010BDC925000860
:10247800F00B00200D290008402300204807002009
:1024880036A301082DE9F047DFF8508004460746D7
:102498004FF0010994FAA4F5B5FA85F509FA05FA99
:1024A8002E0108EB051524EA0A042B7B63B158F8C2
:1024B80006301B696BB946440422736828461968BC
:1024C80027EA0A0712F072F8002CE3D13846BDE873
:1024D800F087284698470028F6D1ECE7008E0108D7
:1024E8002DE9F0472E4F2F4C3B1B8F2B82468946F8
:1024F8000BD92D492D4A2E484FF4A67311F074FCC0
:102508004FF4A671294811F066FC2A4812F027F802
:10251800064678B300252846BDE8F087237B83B1BB
:102528002368DB680BB120469847636883F8068008
:1025380023681B69B3B9636804221968204612F03E
:1025480035F801361034BC4218D91B49174A1848C7
:102558004FF4AC7311F048FC184811F045FC4FF4E7
:10256800AC71CFE7204698470028E4D008FA06F374
:102578001D43E6E705464FF00108E4E7CED3BAF17C
:10258800000FC8D0002DC5D02846FFF77BFF0546B1
:10259800B9F1000FF6D0002164200EF0ADFFF1E78D
:1025A800108E0108008E01086BA301083EA30108E4
:1025B800FA9D0108080F00209BA30108BCA301088D
:1025C80001480DF061BB00BFFC060020014B53F829
:1025D800200070471491010808B530B1044A106012
:1025E800084600F06DFD002008BD6FF01500FBE700
:1025F8006C03002010B5044C237813B903480DF080
:1026080043FB0123237010BD08220020FC06002094
:1026180010B504460B4811F0A2FF5CB1BFF35B8F05
:10262800094B53E8001F013943E80012002AF8D18A
:10263800BFF35B8F054815F014FD0548BDE8104051
:102648000DF022BB000F0020040F0020F00B00202B
:10265800FC060020064BBFF35B8F002253E8000FF7
:1026680043E800210029F9D1BFF35B8F704700BF11
:10267800000F002070B5FFF7EDFF104C104D064617
:10268800AC4219D90F49104A10484FF4037311F09E
:10269800ABFB0F4811F0A8FB0B484FF4037111F086
:1026A8009AFB63685B792BB123685B6813B1314689
:1026B800204698471034E3E7F3D370BD008E010835
:1026C800108E01089BA301083EA30108FA9D01088A
:1026D800BCA3010810B5044C04492046FFF74CF888
:1026E800034B1C6010BD00BF40060020009101088C
:1026F800F40E0020154A1648002310B51370154A29
:102708001360154A4FF47A711360FFF765FFFFF7FE
:10271800E1FF124B124918468B4215D91149124A4A
:10272800124840F2271311F05FFB114811F05CFBCF
:102738000D4840F2271111F04EFB1A1A5C6812116D
:10274800013222711033E7E7F7D310BD09220020C8
:1027580081450108000F0020040F0020008E0108A9
:10276800108E01089BA301083EA30108FA9D0108E9
:10277800BCA301080146002201480023FFF72EB838
:10278800400600200148FFF747B900BF4006002077
:10279800024B01461868FFF7C7B900BFF40E0020C6
:1027A8000148FFF735BA00BF4006002070B52E4B30
:1027B8001878002856D0FFF7E5FF054600283DD1D8
:1027C8002A4B2B4C1B68002B12DD15F0F7FB0A2255
:1027D8000023FDF7F7FFD4E90032C01A40F2E933CD
:1027E80061EB0201984271F1000101D3FFF742FF4A
:1027F800D4E9003213F57A7342F10002C4E90032D9
:10280800BDE87040FFF7CCBF63685B7923B12368EC
:1028180029461B68204698471034B44211D91549F7
:10282800154A16484FF4007311F0DEFA144811F0F7
:10283800DBFA11484FF4007111F0CDFA114C124E29
:10284800EBE7E1D32846FFF7A3FFBFF35B8F0F4BFE
:1028580053E8001F013943E80012002AF8D1BFF3FA
:102868005B8FADE770BD00BF08220020000F00207D
:10287800E80B00209BA301083EA30108FA9D01086C
:10288800BCA30108008E0108108E0108040F002067
:1028980070B5154D297829BB0120FFF721FE134C8F
:1028A800134EB44217D91349134A144840F2C513BA
:1028B80011F09AFA124811F097FA0F4840F2C51130
:1028C80011F089FA63685B791BB1236820469B681D
:1028D80098471034E5E7F5D3FFF768FF0028FBD1E8
:1028E80001232B7070BD00BF09220020008E010853
:1028F800108E01089BA301083EA30108FA9D010858
:10290800BCA301082DE9F843DFF8B8802E4BA8EBEB
:1029180003031B090BD12D492D4A2E4840F2A93338
:1029280011F062FA40F2A931294811F054FA002155
:102938000846FFF7D5FD044628B34FF4FA7600277A
:102948000EF068FE244B186030B1244B1B68092B2D
:1029580002DD23480DF098F9002544B12046FFF721
:1029680091FD044618B94FF0FF364FF0FF37FFF7D7
:102978001DFF814628B95DB9194832463B460DF01E
:1029880007FA4D46E9E74FF0FF364FF0FF37D7E734
:102998000D4D08E0F0D22B689B691BB1002211464F
:1029A8002846984710354545F4D90E49084A09483C
:1029B80040F29D3311F018FA0B4811F015FA40F265
:1029C8009D31B1E7108E0108008E0108DBA30108D4
:1029D8003EA30108FA9D0108FC0E0020040F002008
:1029E800FC0600209BA30108BCA3010813B52C48D2
:1029F80011F0B5FD2B4B1B78002B35D0EFF311846C
:102A0800102383F31288BFF36F8F27480FF07AF8EB
:102A180068B9264A26492748882311F0E5F922494A
:102A2800254811F0E1F98821204811F0D4F91E4811
:102A38000FF08CF8FFF7BAFE1B480FF071F868B971
:102A48001A4A1E491B484FF49A7311F0CDF91649DA
:102A58001B4811F0C9F94FF49A71E5E784F311881E
:102A6800BFF36F8F02B010BD164B1B68002BF9D057
:102A780050B900220023CDE90023134842F2107216
:102A880000230FF09BFBEDE70928EBD10E4815F06A
:102A9800E8FA0E4802B0BDE810400DF0F5B800BFE6
:102AA800040F002009220020F80E002029A10108A7
:102AB80056A10108FA9D01086BA1010881A101082E
:102AC80098A10108FC0E0020F00B0020FC06002055
:102AD80010B5064B1B68044698472146A060044879
:102AE800FEF740FFBDE81040FFF780BF6C030020F1
:102AF80040060020044A054B9B1AB1EBD30F34BFA4
:102B080052F8310000207047D08C0108008E01086F
:102B18002DE9F04F8FB004AFC1F34A29C7E902028B
:102B28007B6088460C0DB9F1000F68D000260A2397
:102B38004FF0040B07F1140AC7E907667E62009399
:102B4800CDF808B0CDF804A0F86807F11C033246A8
:102B58004946FEF7F5FBB0F5006F05461CD3FB6848
:102B68006C465B688AB02A49CDE9091340F2FF73C5
:102B78000B9304AA4FF40073ADF83030254B42F89C
:102B8800103F254833464FF41251FFF7C1FFA546C1
:102B98002C37BD46BDE8F08F04F11700284420F01B
:102BA80007008008FFF7E6FD0446E8B100F11003CE
:102BB800C7E907357E62CDE901AB0A230093174ABE
:102BC800F86807F11C034946FEF7BAFB00280BDA40
:102BD80013491448144A4FF4A37311F005F9124825
:102BE8004FF4A37111F0F7F8C5F30A0969F35328F4
:102BF8007B68B9684246204611F0F8FCC8E704F142
:102C0800170020F007008008FFF7B4FD0446EDE741
:102C180004A4010804000001508D0108C7450108FB
:102C280070A40108FA9D010843A401082DE9F04F9A
:102C380087B0DDE91278DDE9106905468A46144651
:102C48009B462FB3CDF800803B464A461021002012
:102C5800CDF81480FEF784F900280BDA2749284AB2
:102C6800284840F2651311F0BFF840F26511244876
:102C780011F0B1F8B0F5006F01460BD3224A234892
:102C880040F2FF73022107B0BDE8F04F11F007BD15
:102C98003946384604F0070305F00704E40044EA1F
:102CA800831444EA402406F11700084420F0070082
:102CB80080080391FFF75EFD44EA06540546A0B17B
:102CC8009FB10399CDF800803B464A461030FEF785
:102CD80047F9002809DA0949094A0A484FF4C47330
:102CE80011F082F84FF4C471C1E75B4622465146A1
:102CF800284607B0BDE8F04F11F078BC6FA4010872
:102D080043A40108FA9D010879A40108508D01081F
:102D1800406820B1034BC01A40F3CF0070474FF012
:102D2800FF307047D08C01080EB403B503AB0146E1
:102D380053F8042B0448019301F054FA02B05DF8EB
:102D480004EB03B0704700BF712D0008CA0605D414
:102D58008B064CBF02490349FFF7E6BF704700BF27
:102D68005ECD0108B1A4010838B54B681A68CB6874
:102D78009A4205460C4602D1084611F0B2FC636837
:102D8800BFF35B8F53E8002F511C43E80010002865
:102D9800F8D1BFF35B8FA3689D5463681A68E36832
:102DA8009A4209D905490648064A722311F01CF8C7
:102DB8000448722111F00FF8002038BDE3A401087F
:102DC800FA9D0108B4A401082DE9F04F89B0CDE9B6
:102DD80005239DF84C80149B179F0493DDE915A9E2
:102DE80004460D46B8F1000F00F09F80B8F1040FBB
:102DF8000BD98549854A864840F2462310F0F4FFEE
:102E080040F24621814810F0E6FF07F480730793EB
:102E180011F0CAFB07F0020B0246002854D07D4986
:102E28002046FFF781FF0646BBF1000F08D017F0D8
:102E3800440F4BD178492A462046FFF775FF0644D0
:102E480007F0010353B1754B754953F82820754BAA
:102E58002046002A08BF1A46FFF766FF07F480736A
:102E6800002B07F00803069D18BF0025002B59D03A
:102E78006D4B6E4953F828202046FFF755FF8346CF
:102E8800059B2BB16A491A462046FFF74DFF83443C
:102E98002DB168492A462046FFF746FF8344664815
:102EA800B344049B002B47D06449224610F02AFF04
:102EB800002841DA6249554A55484FF4287310F002
:102EC80093FF4FF428719DE70646ADE75D4B186800
:102ED8000028B4D05C4B4FF47A7B1B68B5FBF3F544
:102EE8004FF46163B5FBF0F100FB11550BFB05F5E1
:102EF8004FF03C0CB1FBF3F203FB1211B5FBF0FEF3
:102F0800B1FBFCF300FB1E550CFB13110BFB05F585
:102F18000091B5FBF0F54D49CDE901E52046FFF7F5
:102F280003FF8CE707F0080BAAE7069B012B0CBFF1
:102F380041484748C346B4E7B9F1000F4FD04E4661
:102F4800102E3946204628BF1026FFF7FFFE002521
:102F5800AB4518DC00252B461AF803203D492046CE
:102F6800FFF7E2FE0135102D13D0690703D13A4966
:102F78002046FFF7D9FEB5422B46EDD33749204608
:102F8800FFF7D2FEEEE734492046FFF7CDFE0135C4
:102F9800DEE7334920460025FFF7C6FE2B461AF820
:102FA80003203049A2F120035F2B28BF2E222046A0
:102FB800FFF7BAFE0135102D0DD06A0703D1264957
:102FC8002046FFF7B1FEB5422B46E8D322492046FA
:102FD800FFF7AAFEEEE7B9EB0609B244AFD1B8F1A4
:102FE800000F0AD0FB0704D50E4A0D492046FFF70B
:102FF8009BFE39462046FFF7A9FE204609B0BDE8EA
:10300800F04F11F06EBB00BF18A50108B4A4010869
:10301800FA9D010823A5010827A5010824910108A4
:10302800A5AE010813A50108389101084CA50108AF
:1030380052A5010856A50108712D0008ED410008A8
:103048005BA50108100F00200C0F002030A5010817
:103058000547010864A501086CA501086AA50108CF
:103068006EA5010870A5010873B542F20F738B4273
:1030780028BF0B4605680F4A0446052168460FF02D
:103088001BFD63680C495B6806460B22284611F055
:103098001AFB63683246694628465B6811F013FBE1
:1030A800636806495B681B22284611F00CFB02B0D6
:1030B80070BD00BFF5BD010854D6010838D6010817
:1030C800074A00210123904206D8064A01B9012384
:1030D8001360054B1860704740085B000121F2E758
:1030E80040420F000C0F0020100F0020F8B5074FCA
:1030F8000D4604464618B44201D12846F8BD14F8D6
:10310800011BBB680148DB699847F4E7C4870108DD
:1031180010B543681C68094814F055FE48B90849B9
:103128000848094A992310F05FFE0748992110F0D2
:1031380052FE23685B685C6010BD00BFC48701084D
:10314800D1A50108FA9D010893A50108014B036068
:10315800002070478091010870B5114B1C680D461E
:1031680094B1104B196800238B4202DB6FF0010009
:1031780070BD224612F8106B864208D001331446FF
:10318800F2E72C600020F3E76FF00C00F0E7E0684E
:1031980014F019FE0028F4D16FF01200E8E700BF20
:1031A800780300208091010810B588B04368029325
:1031B8008368C068CDE903320A680023CDE9062395
:1031C8000C4601AA0449059313F0A8FD079808B90D
:1031D800059B236008B010BDF14701082DE9F041B7
:1031E8000B4B1C6806460F46904674B100F0FCF87D
:1031F800636820461D693A4643463146A847044657
:1032080000F0FCF82046BDE8F0816FF00104F9E712
:10321800400F002000230360044B5A6812B9C3E929
:103228000000704710605860704700BF440F0020CE
:10323800014B1860704700BF400F00201FB5CDE953
:103248000101039200F0D0F8074B1C6834B16368A1
:1032580020461B6801A998472468F7E700F0CEF8D4
:10326800204604B010BD00BF440F0020024B0022CE
:10327800C3E90022704700BF440F0020024B002220
:10328800C3E90022FFF7F2BF4C0F00202DE9F743F6
:1032980007460D4609B100230B60264CDFF89890CD
:1032A80000264C4524D92549254A26489D2310F057
:1032B8009BFD254810F098FD21489D2110F08BFDBD
:1032C800D4F8008001AA4146384611F0C8FA50B136
:1032D80016B955B9264606E031680022404611F075
:1032E800BEFA0028F5D11834DBE7019B2B60F1E723
:1032F800E6D3164B1C68C4B154F8188C01AA414691
:103308003846183C11F0ABFA50B116B955B92646F3
:1033180006E031680022404611F0A1FA0028F5D1F4
:10332800A469E8E7019B2B60F1E7304603B0BDE8EC
:10333800F08300BF108E0108108E01084EA6010808
:103348001CA60108FA9D0108BCA301084C0F002027
:103358002DE9F04784B002AF0546BC6A78600E4696
:103368009046994634B1216831BBD4F804A0BAF12B
:10337800000F28D1391D2846FFF788FF08B3C46815
:1033880078684B4642463146A047D0B16C468AB071
:10339800124B0990CDE9073502AA4FF40073ADF836
:1033A80028300F4B42F8103F0E4800234FF41151BC
:1033B800FFF7AEFBA54604E03A1D11F050FA0028CD
:1033C800D3D1002006E0A368009378684B464246B4
:1033D8003146D0470837BD46BDE8F08776A60108D4
:1033E80004000001A08D010803484FF0FF324FF0A0
:1033F800FF330CF08BBA00BFE806002001480CF040
:1034080053BB00BFE806002038B5094DFFF7ECFFB5
:103418002B785BB9FFF732FF00F066F8044608B96D
:1034280001232B70FFF7EAFF204638BD0024F9E797
:103438000B2200202DE9F043048F99B007468846F7
:10344800013400F10806651EADB2B5F5004F47D04E
:103458004A2305AA2946304611F068F804F57F5436
:103468003F34A4B28146214601230DF10B023046B8
:1034780011F05CF8B9F1000F014610DC002810DCEF
:103488003B8FAB4209D13A466B1E22F8383F4FF4C6
:10349800004102233046FEF797FE2C46D3E700286A
:1034A80008DC2946304611F03DF82146304611F037
:1034B80039F8E5E709F160030DEB0309002309F882
:1034C8004C3C084ACDF8008003AB05A80396ADF83C
:1034D8001040FFF73DFF0028DFD019B0BDE8F083AA
:1034E8000020FAE7AD4801087FB5012369460320AB
:1034F8000193FFF731FE044660BB02AA01A903202D
:1035080011F094F9044610B110F10C0F22D103996F
:10351800B1F5803F21D2009A0023946818460844E8
:10352800844202D30133082BF9D10D4D69612B83F5
:103538005368AB602846D368EB6311F055FA04462C
:1035480040B9084E6E602846FFF764FE28466E6054
:10355800FFF76EFE204604B070BD6FF02004F9E757
:10356800540F00207C03002008B50348034A0021BB
:10357800121A11F06DFA08BD480700201C2300201C
:103588000748084A084908B5121A11F063FA0748AB
:10359800074A0849BDE80840121A11F05BBA00BF93
:1035A8000000002044070020ECD90108000000209A
:1035B80000000020ECD901082DE9F047804600AF53
:1035C8000C46002936D0E9468AB0D1E90012A36832
:1035D8006D4621486E464FF0050ACDE90501CDE953
:1035E800072346F810AF1D48324600234FF42151F7
:1035F800FFF78EFACD46D4E903126369AD46184841
:10360800C5F810A0C5E90501C5E90723134800233B
:1036180032464FF42151FFF77BFACD46E369114A50
:103628000E48012111F03BF8A3690F4A0B4801210C
:1036380011F035F8B8F1010F07D1EFF305830B4A04
:103648000648103B414611F02AF8214640460BF047
:1036580057FFBD46BDE8F087AAA60108988D010866
:10366800D9A6010808A7010817A7010845A7010856
:1036780030BFFFF7FDBF00BF054B5A699B689A42F0
:103688001FBF044A536843F080535360704700BF1C
:10369800B421002000ED00E010B5204C204921485D
:1036A80011F0E5F9A36A990136D51E481E4911F0B3
:1036B800DEF91E20A36ADA0104D51A481B4911F065
:1036C800D6F91F20154CA36A1B0304D515481849C1
:1036D80011F0CDF92120A36A590304D511481549E1
:1036E80011F0C5F922200D4CA36A9A0304D50D48A0
:1036F800114911F0BCF92320A36ADB0304D509485A
:103708000E4911F0B4F92420044A936A6FEA03437E
:103718006FEA1343936210BD1D20CBE700ED00E074
:1037280058A70108988D010870A7010883A7010808
:103738009DA70108BBA70108E0A70108FAA701088F
:1037480070B5244C06460D462348244911F08FF9DC
:10375800A36AD9043CD52048214911F088F91720DB
:10376800A36A1A0504D51C481E4911F080F91820CF
:10377800184CA36A9B0512D51B49174811F077F915
:10378800A36BA26A110409D5184A1348012110F045
:1037980086FF1EB1A36A23F40043A36219200D4CCF
:1037A800A36A5A0504D50C48114911F060F91A208A
:1037B800A36ADB0504D508480E4911F058F91B2007
:1037C800044A936A43F47F43936200232B7070BDCD
:1037D8001620C5E700ED00E0988D010825A801082E
:1037E8003BA801084CA801085FA8010878A80108AF
:1037F8008DA80108A8A801082DE9F843384D80468E
:10380800894638483849174611F031F9AB6ADC0661
:1038180027D53649334811F02AF91124AB6A18071D
:1038280004D533492F4811F022F912242C4DAB6AE4
:10383800990718D52F492B4811F019F96E6BAB6A07
:103848001A0637D52C4A27483346012110F027FF9E
:10385800B9F1000F03D0AB6A23F08003AB621324E5
:1038680003E01024DAE76FF015061D4DAB6ADB079D
:1038780004D522491B4811F0FAF81424AB6AD8067B
:1038880002D4AB6A99070BD5154D6B681A0507D595
:103898004146304600F066FA78B180F30988022480
:1038A8000F4A936A43F0FF03936200233B7020465C
:1038B800BDE8F8836FF01506D1E7AB6ADB06EFD5F4
:1038C8000F49104A104840F2271310F08DFA0F489C
:1038D80010F08AFA0B4840F2271110F07CFA00BF6A
:1038E80000ED00E0988D0108C0A80108D6A80108DD
:1038F8004CA8010809A9010821A9010837A901084C
:1039080088A9010856A90108FA9D0108D2A9010849
:10391800F0B5784B8BB05D6800AF002686F3118850
:10392800BFF36F8F02F07F43B3F17F4F07D11407C6
:1039380026D5500712D47049704811F098F870498C
:10394800704A714840F2144310F04EFA6F4810F074
:103958004BFA40F214416B4810F03DFA0C46002C2B
:10396800EDD00022C5F30803FA71DA1E092A00F225
:10397800A180DFE802F008979A7A9F9F9F9F9F9DFA
:1039880004460126EBE762495C485A4D11F06FF88E
:103998000023FB71EB6A9A0705D55E49574811F079
:1039A80066F8002329E0EB6A002B01DA5A49F5E7AB
:1039B800EB6A5B0069D55949504811F058F86B69B2
:1039C800A26943F480736B61BFF34F8FBFF36F8FAE
:1039D8006B6932F8022C23F480736B61BFF34F8F4D
:1039E800BFF36F8F4DF602739A4227D123684C4A72
:1039F8004248012110F053FE2368FA79DAB907F139
:103A0800080504F1200C206861682A4603C20834BE
:103A180064451546F7D17A6A002E68D0C2F30801CA
:103A280021B96FEA52226FEA42227A6207F108014D
:103A38001846FFF7C1FD2C37BD46F0BDAB6ADBB2B7
:103A480033B1FA1D01212046FFF7D6FE0346D4E71D
:103A5800AB6A13F47F4F04D0F91D0120FFF770FE05
:103A6800F4E7AB6AB3F5803F02D3FFF715FEEDE745
:103A78002C49244A244840F2ED2310F0B5F92A488D
:103A880010F0B2F940F2ED2165E726491D4A1E48BB
:103A98004FF43C7310F0A8F9244810F0A5F94FF43E
:103AA8003C7158E7FA1D0021CDE7F91D0020D5E744
:103AB8001F4973E71F49204A15F4F87F08BF0A46D3
:103AC8006D468AB01D49103BCDE9051207936A4639
:103AD8004FF40073ADF82030194B42F8103F0748F7
:103AE80000234FF41151FFF713F8AD4659E76FF370
:103AF80008029AE700ED00E023AA0108988D010862
:103B08004EAA010856A90108FA9D010861AA0108F0
:103B18009FAA0108B6AA0108D7AA0108E5AA0108C0
:103B280004AB0108B6CA010820AB010844AB010880
:103B380074AB0108F5A901080AAA010898AB0108A5
:103B480004000001044B5A6942F010025A615A6994
:103B580022F008025A61704700ED00E0EFF3088098
:103B6800EFF3098101B57246FFF7D2FE01BD00BF30
:103B78000A4880F30888102080F3118808484FF419
:103B88000461401880F30988EFF314800221084388
:103B980080F31488BFF36F8F10F071FF003D002091
:103BA800802B0020084B9B6883420BD1EFF30583E1
:103BB80043B1064B5A6842F080525A605A6A22F45E
:103BC80000425A620DF02CBDB421002000ED00E047
:103BD80013498A684FF030001044EFF3098C80E8ED
:103BE800F01F102080F31288BFF36F8F0D4F4FF036
:103BF80000664A698A603E60D2F898000023C2F8DD
:103C0800983080F3118804B5104600F001F9BDE83A
:103C1800044002F1300090E8F01F8CF309887047E7
:103C2800B421002004ED00E01EF0040F0CBFEFF3F8
:103C38000880EFF30980816911F8021C0229FFD07E
:103C480001B5724610F008FF01BD00BF40B2002860
:103C580007DB044A4109012300F01F00834042F8B2
:103C68002130704700E100E040B200280CDB430936
:103C7800064900F01F0020330122824041F823202A
:103C8800BFF34F8FBFF36F8F704700BF00E100E0B5
:103C9800054B420900F01F0053F82220012303FAC4
:103CA80000F01040704700BF00E100E038B54B1C41
:103CB8000F2B04460D460FD9104A114911486B23A2
:103CC80010F092F8104829460F23224610F08CF87D
:103CD8000A486B2110F07FF842B2002AAEBF02F109
:103CE80060420A4902F00F024FEA0313AABF02F525
:103CF80061428B5482F8003338BD00BFABAB01087A
:103D0800E2AB0108FA9D0108FDAB010814ED00E0E3
:103D1800044B054A23F07F039360BFF34F8FBFF333
:103D28006F8F70470000000800ED00E042F8203C6B
:103D3800009B42F81C3C0A49019B42F8183C029B34
:103D480042F8143C21F001014FF0807342F8043C22
:103D580042F8081C0023203A0265C0F898307047E2
:103D6800CB3D01080A4B0246986878B112F1160F4C
:103D7800D0F8880005D0A0F14003934205D88242CC
:103D880003D2814228BF002070470020704700BF3F
:103D9800B421002008B50B4B0E461546986000F07C
:103DA80037F82C4686F309880020044B98472046AC
:103DB800002100220023024C20470000A34A0108EA
:103DC800CB3D0108B4210020014B10221A61704735
:103DD80000ED00E008B5EFF30583064A103B02EB5F
:103DE800C30152F8330049688847BDE80840FFF727
:103DF80043BC00BF24890108024B034A0348012140
:103E080000F08CB80000012000000020C4910108D7
:103E1800D0F88830054A403B1360054B4021C2E981
:103E280001131046012100F09FB800BF940F002035
:103E380000000B1508B503461048D0F89020C2F3CF
:103E48000722013A934207D90D480E4A012110F082
:103E580026FC6FF0150008BDC0F898300A6822F0FB
:103E68001F021A4342F01002C0F89C208A6842F0F0
:103E78000102C0F8A0201846EDE700BF00ED00E001
:103E8800908D010841AC0108F0B50E4685B01F467B
:103E980004460025B5420DDA606810B397B1431E99
:103EA80018420AD0104A11482B46012110F0F7FB9E
:103EB8006FF01502104605B0F0BD1F28F2D9216831
:103EC8000B42EFD12368019310F007FEA16801436C
:103ED8000391D0B201A9FFF7ADFF10F1160FE7D09B
:103EE800421C01350C34D5E767AC0108908D0108F8
:103EF800044B0522C3F89420BFF34F8FBFF36F8F95
:103F0800704700BF00ED00E0BFF35F8F024B002257
:103F1800C3F89420704700BF00ED00E038B50D4CA1
:103F2800012322780D46FFF7AFFF207016300FD11E
:103F3800094A0A490A4840F283130FF055FF094815
:103F480029460FF051FF044840F283110FF043FF58
:103F580038BD00BF0C2200208AAC0108B6CA01088F
:103F6800FA9D0108B9AC010810B5144A002312786B
:103F78000C46FFF789FF10F1160F08D0104A0021F0
:103F8800D2F89030C3F30723984210DB10BD0D4AD6
:103F98000D490E484FF4D1730FF026FF0C48214607
:103FA8000FF022FF07484FF4D1710FF014FFC2F849
:103FB8009800C2F8A0100130E2E700BF0C220020F0
:103FC80000ED00E08AAC0108B6CA0108FA9D0108B4
:103FD800E5AC01082DE9FF41764C7749D4F89030DB
:103FE8000D68C3F307239D4213D9744A7449754871
:103FF8004FF4FE730FF0F8FED4F89020724829466B
:10400800C2F307220FF0F0FE4FF4FE716B480FF079
:10401800E2FEFFF779FF49680022954229D16B4CEF
:1040280068462570FFF792F800250646AE4233D160
:10403800237860490020D1F89020C2F307229342E8
:10404800C0F2AD80FFF754FFD1F8903003F47F43FE
:10405800B3F5006F00F0A9805D49584A594840F20D
:104068006E230FF0C1FE5B480FF0BEFE40F26E21DA
:10407800CCE7C4F8982051F80C3B23F01F031343F6
:1040880043F01003C4F89C3051F8043C43F001039A
:10409800C4F8A0300132C0E7009A02EB05132901E9
:1040A800DF68380D0005B0F5000F60D00AD8B0F50C
:1040B800001F36D0B0F5800F4DD0B0F5801F11D05D
:1040C8000135B3E7B0F1807F5BD0B0F1007FF7D165
:1040D80098685F68525810F000FDCDE9017240F40D
:1040E80080200AE098685F68525810F0F6FCCDE925
:1040F800017240F0885040F430200390207801A9E4
:10410800FFF798FE002846DA2D492C4A2D4840F240
:1041180026230FF069FE30480FF066FE40F2262194
:1041280074E79868D3F80480525810F0D6FC40F031
:10413800885040F40020FB07CDE901820390DDD5CB
:1041480026491E4A1F4883230FF04EFE24480FF0CD
:104158004BFE83215AE798685F68525810F0BDFCFF
:1041680040F00070CDE9017240F40030C5E798686E
:104178005F68525810F0B1FCCDE9017240F08270CE
:10418800BBE798685F68525810F0A7FCCDE9017248
:1041980040F08870B1E723780133237090E7C1F8C5
:1041A8009830C1F8A000013345E7002004B0BDE80D
:1041B800F08100BF00ED00E0D09101088AAC010851
:1041C800B6CA0108FA9D010812AD01080C220020A8
:1041D800C5AD010815AE01089BAD010846AD010843
:1041E8006CAD0108F0B587B007460E4614460021AD
:1041F800102268461D4613F0D0FF02238DF80230C6
:104208002A46054B019321466846CDE904760EF00F
:1042180015FD07B0F0BD00BF034B010808B5024B00
:104228001B689847002008BDA00F0020034B044AD4
:104238001860937843F0020393707047A00F002032
:104248009803002008B50649064821F00701C1F186
:10425800005202F58032FCF7FBFD002008BD00BFCC
:1042680087450020A40F0020024B1B6803B11847A4
:10427800FF207047B80F00200A4B0B4A0020C3E903
:1042880000000A4B1A600A4A5A600A4A9A600A4AA7
:10429800DA600A4B0A4AC3E900200A4A9A600A4AC5
:1042A800DA607047DC0F00200D440008CC0F0020B6
:1042B8003543000875440008134B0108BC0F002063
:1042C800714200081D4B0008154B010830B50E4C13
:1042D8008BB02D23054668468DF8003004F0CAF9E6
:1042E8009DF904002378984200D15DB1074B1B6803
:1042F800C0B2207003B198472378054A05480321C6
:1043080010F0CDF90BB030BD0F220020B40F002003
:1043180045AE0108688D0108034BBFF35B8F186831
:10432800BFF35B8F704700BFE40F00202DE9F04317
:1043380083B0427802AF0546CAB1104600F026FBAA
:104348006C4688B02A4B02AACDE907304FF40073B7
:10435800ADF82430274B42F8103F27484FF4E2517C
:1043680010F0D6FBA5460437BD46BDE8F083FFF73D
:10437800D3FFC00702D51046FFF7A8FFFFF7CCFF11
:1043880081070ED42B7F63B1BFF35B8F1B4B53E8C0
:10439800001F41F0020143E80012002AF7D1BFF3E1
:1043A8005B8F174B1C68002CDDD069792B7F4A1E68
:1043B8005142514141EA43015FFA81F8083C4FF606
:1043C800FF792388E8784B4501D083420AD1A96850
:1043D80095F91030B5F90E200191297B0091666896
:1043E8004146B047A468002CBDD0083CE9E700BFAF
:1043F8005DAE010803000001688D0108E40F00208C
:10440800DC0F0020B0B50446407800AFA0B100F042
:10441800BDFA6D4688B0104B6A46CDE905304FF4B9
:104428000073ADF81C300D4B42F8103F0C484FF4A8
:10443800E25110F06DFBAD46FFF76EFFC30702D5E2
:104448000020FFF743FF074B62781A7006480BF00D
:104458001BFCBD46B0BD00BF78AE010803000001DB
:10446800688D01080E22002014070020B0B58AB01C
:104478000446407800AFE8B100F088FA6D4688B08D
:104488001D4B6A46CDE905304FF40073ADF81C307A
:104498001A4B42F8103F1A484FF4E25110F038FB1B
:1044A800AD46184B62781A7017480BF0EDFB2837A9
:1044B800BD46B0BD2378052B0FD0092B19D0012B91
:1044C800EFD1072338463B7004F0D4F87B680F4AD5
:1044D8000B48032110F0E3F8E3E70D4B1B6813B119
:1044E800617A207A98470B4A0548032110F0CFF8E3
:1044F800D7E7094AF8E700BF90AE010803000001BA
:10450800688D01080D2200202C070020A8AE0108A4
:10451800B00F0020C6AE0108D6AE0108052808B5C0
:10452800034606D1074A084B107001221A70002072
:1045380008BD0648064A012110F0B1F86FF0850061
:10454800F6E700BFED050020EC050020688D0108A6
:10455800E6AE0108F0B59BB0044600AF4FF0FF325D
:104568004FF0FF3365480BF0D1F901261D2307F101
:1045780018003B763E7704F091F9257D002D5DD13A
:104588005F4B3E711B787B7202233B7287F8403089
:1045980007F1400023697B6404F080F9032387F85E
:1045A800403007F1400023687B6404F077F9092361
:1045B80087F8403007F1400063687B6404F06EF9C7
:1045C800082387F8403007F14000A3687B6404F0B3
:1045D80065F9381D04F076FC044608B300F0CAF902
:1045E8006D4688B0474B6A46CDE905304FF40073F5
:1045F800ADF81C30444B454842F8103F4FF4E251A7
:1046080010F086FA2046AD4600F0CCF904460028A2
:104618005DD03A480BF048FA20466C37BD46F0BDED
:104628004FF0FF333A484FF0FF320BF0B1FB394BF4
:10463800187800284BD000F0C7F9E7E7012D5AD1C8
:10464800352387F8403007F14000334B7B6404F092
:1046580025F9062387F8403007F1400000237B64E2
:1046680004F01CF9072387F8403007F1400023685D
:104678007B6404F013F90C2387F8403007F14000FD
:10468800A3687B6404F00AF90D2387F8403007F12A
:104698004000A3687B6404F001F90E2387F84030DA
:1046A80007F14000A3687B6404F0F8F80F2387F84B
:1046B800403007F1400063687B6404F0EFF807F1CD
:1046C800400087F8405087F8445004F0E7F8FFF7B7
:1046D80023FEC3070AD42D2387F84030084B07F17F
:1046E80040001B7887F8443004F0D8F80120FFF721
:1046F800EDFD00248DE76FF015048AE7C006002061
:104708001022002000AF010803000001688D010895
:104718002C0700200D2200200003000100B58BB0FB
:104728000246FFF7F9FD00F00100824219D0BFF3FD
:104738005B8F114BBAB153E8001F41F0010143E808
:104748000012002AF7D1BFF35B8F05238DF80030E4
:10475800FFF7E2FD00F001008DF80400684604F060
:104768009DF80BB000BD53E8001F21F0010143E89C
:104778000012002AE7D0F6E7E40F00202DE9F04107
:1047880086B0804600AF0E4615461C4609B9002A79
:104798006DD138484FF0FF324FF0FF330BF0B6F8C9
:1047A8003946284603F004FF002840D000F0E2F81C
:1047B8006C4688B0304B6A46CDE905304FF400733B
:1047C800ADF81C302D4B42F8103F2D484FF4E25104
:1047D80010F09EF90023A54601253B71FB603B8242
:1047E800381DBB7405F026FA044670B300F0C2F811
:1047F8006D4688B0234B6A46CDE905304FF4007307
:10480800ADF81C301D4B42F8103F1D484FF4E251E3
:1048180010F07EF92046AD4600F0C4F8044615486D
:104828000BF042F920461837BD46BDE8F08154B177
:10483800012C08D0144B3D8293F9003087F808808A
:10484800FE600025CCE73C71F4E74FF0FF330F48DA
:104858004FF0FF320BF09CFA0D4B187808B100F0BE
:10486800B3F8002D044618BF6FF00A04D7E76FF0BD
:104878001504D7E7D406002015AF0108030000018E
:10488800688D01083AAF01080F22002014070020A4
:104898000E22002000238360054B596800F10802AE
:1048A80011B9C3E9002270470A605A60704700BF17
:1048B800DC0F0020014B1860704700BFB40F0020C8
:1048C800B0B5234D234924488EB02A7800AF03F0B1
:1048D800A9FCC8B100F04EF86C4688B01F4BCDE972
:1048E80005306A464FF40073ADF81C301C4B1D4868
:1048F80042F8103F4FF4E25110F00AF96FF015003A
:10490800A5463837BD46B0BD10F015F900F04AF994
:1049180003F044FE044628B100F02CF86C4688B039
:10492800114BDCE7062307F1080128783B7211F0E8
:1049380044FB0E4B18700E4B187030233B7407F174
:10494800100014237B6103F0A9FF2046D9E700BFBC
:10495800ED050020BC0F0020CC0F002052AF01084D
:1049680003000001688D010873AF010810220020C0
:104978000F22002017289ABF024B53F82000024844
:10498800704700BFD0920108A1AF01080F289ABF55
:10499800024B53F820000248704700BF909201086C
:1049A800B1AF0108162809D8064B53F820301BB9B7
:1049B800984218BF6FF01503184670476FF015033B
:1049C800FAE700BF349201080F2809D8064B53F8BC
:1049D80020301BB9984218BF6FF01503184670476E
:1049E8006FF01503FAE700BFF49101082DE9F04FC5
:1049F80085B000AFC7E90232DFF8F89004460E46EA
:104A080000254FF0140B0BFB05F101EB090359F8D6
:104A180001A07B6021465046FCF78AF87B688046F7
:104A280000284DD19A6896420ED06D4688B0324B18
:104A3800CDE905346A464FF40073ADF81C302F4BAE
:104A480042F8103F434610E0DB68BA6BD3182CD10C
:104A58006D4688B02A4A2949CDE905244FF40072E9
:104A6800ADF81C206A4642F8101F26484FF4E25160
:104A7800FEF74EF8AD466C4688B0234B6A46CDE942
:104A8800053A4FF40073ADF81C301C4B42F8103F48
:104A98001C4800234FF4E251FEF73AF86FF0150076
:104AA800A5461437BD46BDE8F08F19463246D7E90A
:104AB8000203984786421AD06D4688B0134BB7E771
:104AC8000135072D9FD16D4688B0114B6A46CDE957
:104AD80005344FF40073ADF81C30084B42F8103F12
:104AE800084800234FF4E451FEF712F8AD460020C1
:104AF800D7E700BF3093010839B20108030000016D
:104B08005FB20108788D0108A4B2010881B20108DA
:104B1800BEB201082DE9F0438BB0064600AF50B194
:104B2800342338463B7003F0A5FD40B1184A1948B4
:104B380001210FF0ACFD2C37BD46BDE8F083D7F856
:104B48000480154C0725238AB3431CD1D4E90221DC
:104B580060684144FEF742FBA8B1E94623688AB081
:104B68000E4A0790CDE905234FF400736A46ADF865
:104B780020300B4B42F8103F064800234FF41151E8
:104B8800FDF7C6FFCD46013D04F11404DBD1D2E7A1
:104B9800DAB20108788D010830930108F4B20108EF
:104BA8000400000130B58BB0342568468DF80050FC
:104BB80003F060FD38B1134A134801210FF067FD77
:104BC8006FF015040CE0019A10491148FEF736FB06
:104BD800044640B10F4A034601210B480FF05FFD20
:104BE80020460BB030BD68468DF8005003F056FEE5
:104BF80003460028F4D0084A034801210FF04FFD6E
:104C0800DEE700BFDAB20108788D0108F54900082F
:104C180019B3010825B301084FB3010801480BF087
:104C28007BBB00BFA8030020014B18605960704788
:104C3800E80F0020024B1A685B6802600B6070473F
:104C4800E80F002008B50FF07AFF024B1B68C01A66
:104C580008BD00BFF00F0020014813F002BA00BFE2
:104C6800880600200A2307B5A0FB032300210020A3
:104C7800CDE9000102480DF0A1FA03B000BD00BF64
:104C88008806002008B50FF05AFF014B186008BDD0
:104C9800F00F0020014B1868704700BFF00F00208C
:104CA80010B5124CBFF35B8F022354E8002F012A82
:104CB80003D144E800310029F7D1BFF35B8F11D14C
:104CC8000B4BDB6A9847002344F8403CBFF35B8FEB
:104CD80054E8002F44E800310029F9D1BFF35B8F75
:104CE800012010BD0CBF01200020FAE73810002079
:104CF800C894010810B5064B5C68FFF7D1FF30B1C6
:104D08002CB100212046BDE810400DF007BE10BDB3
:104D1800F40F002013B50D4B9A683AB10C4B5B6B3E
:104D28000193002002B0BDE8104018475C68FFF707
:104D3800B7FF40B13CB16FF00401204602B0BDE8B6
:104D480010400DF0EBBD02B010BD00BFF40F002005
:104D5800C89401082DE9F347284C1F46A3688246EA
:104D68000D4691467BB1264B00205B6B9847E36864
:104D7800CDE900732A46A66820684B465146B047DD
:104D880002B0BDE8F08704F144030222D4F804809D
:104D9800BFF35B8F53E8001F012903D143E80020CC
:104DA8000028F7D1BFF35B8F1E46E9D1E36C1A7870
:104DB800AA4288BF1D70E36CA06C1A78514613F0A4
:104DC800DEF9236D0BB1A3F80090636D03B11F707A
:104DD8000B4BDB6A984700216160BFF35B8F56E895
:104DE800003F46E80012002AF9D1BFF35B8F404626
:104DF80002B0BDE8F0470DF091BD00BFF40F0020F0
:104E0800C8940108F8B5054600AF00680C4612F0D2
:104E1800DAFF03462868C3B96C46026888B065495A
:104E2800CDE905124FF40072ADF81C206A466249BC
:104E380042F8101F61484FF4E251FDF769FEA5469C
:104E48006FF012042046BD46F8BDEB88297923434C
:104E580013F0FC6F0ED05A495A4A5B484FF47D73E1
:104E68000EF0C2FF59480EF0BFFF4FF47D71554850
:104E78000EF0B1FF03F03002302A0CD15449514AE8
:104E8800514840F2F7330EF0AFFF52480EF0ACFF36
:104E980040F2F731EBE703F44034B4F5803F03F018
:104EA80002020DD16AB14C49464A474840F2FB33E9
:104EB8000EF09AFF49480EF097FF40F2FB31D6E713
:104EC8005AB95E0709D546493E4A3F4840F2FE3383
:104ED8000EF08AFF40F2FE31C9E713F440221ED0DB
:104EE8009C030CD43F49374A374840F201430EF03F
:104EF8007BFF3D480EF078FF40F20141B7E7B2F57D
:104F0800402F0CD139492F4A2F4840F205430EF063
:104F18006BFF37480EF068FF40F20541A7E7354CB4
:104F2800D0F804C09C4302D10AB183F44023DCF8D2
:104F3800002001268E4016420CD12F49214A2248D2
:104F480040F211430EF050FF2C480EF04DFF40F296
:104F580011418CE7D0F810C0D0F808E0DCF8004028
:104F680023F48012DB074CBF3443B443CCF8004031
:104F7800DEF800309847044600283FF463AF2B68FA
:104F88001A682B796D468AB01D49CDE90730CDE9FD
:104F980005124FF400736A46ADF82430194B42F8F5
:104FA800103F064800234FF43151FDF7B1FDAD46DF
:104FB80048E700BF21B4010803000001E88D01089B
:104FC8006BB401083AB40108FA9D0108DAB4010883
:104FD800FEB4010837B5010874B50108C1B5010868
:104FE80010B6010843B6010892B60108CDB601080B
:104FF8001AB701080100100046B7010884B7010874
:1050080096B701080500000170B50E460F49BFF3B9
:105018005B8F012451E8000F002803D141E80045C7
:10502800002DF7D1BFF35B8F0DD1094D41F8403CFE
:10503800D4B26B6D2146012098473046AB6A2146B1
:105048009847002070BD6FF00F00FBE73810002074
:10505800C89401082DE9F0438FB005AF274C80466E
:10506800894616460021102209A80125CDE90577B1
:10507800CDE9071113F091F88DF83150636B0D9756
:10508800002B34D03B46324649464046FFF7BCFF2A
:1050980080BBF6B2CDE901060395A38F184E0093A5
:1050A80094F83A3094F8392094F83810746A2846FD
:1050B800A0470A23A840A0FB0323294609A80DF00E
:1050C800F9FA041E0FDA0F4A0F4829460FF0DFFAE3
:1050D800FFF7E6FD38B94FF0FF324FF0FF332946AE
:1050E80009A80DF0E7FA20460FB0BDE8F0836FF08D
:1050F8001504F8E76FF00F04F5E700BFF40F002080
:10510800C8940108B6B70108E88D0108F0B58DB05C
:1051180000248DF8072003AE0F461022214607A869
:10512800CDE90366CDE90544012513F036F8274B90
:105138008DF829500B96BFF35B8F53E8002FA242DE
:1051480003D143E800510029F7D1BFF35B8F39D170
:105158000DF1070243E910649A601D4E149ADA6053
:10516800159A1A615F60FF21736D28469847736B23
:1051780020469847DDE91223294607A80DF09AFA38
:10518800041E15DAFFF78CFD50B94FF0FF324FF0CF
:10519800FF33294607A80DF08DFA9DF8074004E073
:1051A8000C4A0D4803210FF072FA20460DB0F0BDED
:1051B800069B002BF1DA094A074829460FF067FADF
:1051C800069CF2E76FF00F04EFE700BF38100020ED
:1051D800C8940108D2B70108E88D0108E2B70108B0
:1051E80010B529B9FFF75CFDE0B96FF0150010BDE7
:1051F8000F4BBFF35B8F012453E8000F002804D145
:1052080043E8004CBCF1000FF6D1BFF35B8F0BD124
:10521800084C43E90F120120636DFF219847636B27
:10522800002098470020E2E76FF00F00DFE700BF9B
:1052380038100020C8940108F0B52C4D0C46012701
:105248008BB0BFF35B8F55E8003F002B03D145E8D7
:105258000072002AF7D1BFF35B8F43D1244E206838
:10526800F3689847E37A4BB32346103D04F11007DF
:10527800186859682A4603C20833BB421546F7D155
:105288004FF47A63089300220120237B0793CDE92A
:105298000522CDE9032023890293A3790193637939
:1052A8000093F569237994F90A10A847B36D607BD8
:1052B8009847FFF7F5FC00200BB0F0BD0997227B5B
:1052C800B569CDE90732CDE90533CDE903330A22C3
:1052D80002922289CDE900323846A3796279217990
:1052E800A847E3E76FF00F00E6E700BF381000209B
:1052F800C894010838B50D4CBFF35B8F08461146BA
:10530800012254E8005F002D04D144E8002CBCF1D0
:10531800000FF6D1BFF35B8F05D1054C1A46E36B3E
:105328009847002038BD6FF00F00FBE738100020C9
:10533800C894010810B5114BBFF35B8F002453E8E4
:10534800002F43E800410029F9D1BFF35B8F0C4AD5
:1053580043F8342C0B4A0C4C43F82C2C0B4A43F8DA
:10536800242C0B4A43F8440C43F8302CA3F13400A6
:1053780022689047E36A9847002010BD3810002043
:10538800FD4C00085D4D0008C89401081D4D00083B
:10539800A94B010810B5012303FA01F143681B6802
:1053A80019420ED10E490F4A0F4840F2A2630EF07F
:1053B8001BFD0E480EF018FD0A4840F2A2610EF0DF
:1053C8000AFD03691B68194218BF82F0010222B165
:1053D8008368DB68BDE81040184783681B69F9E7F4
:1053E80046B701083AB40108FA9D010884B70108D4
:1053F800024604210148FFF7CDBF00BF24870108FA
:10540800024605210148FFF7C5BF00BF24870108F0
:1054180010B50C4CE36933B90B4A0C48BDE8104091
:1054280002210FF034B900209847094B1B6E03B1D5
:10543800984794F8203023B1BDE81040014800F0A7
:1054480025B910BD4C100020FEB70108E08D0108F9
:10545800C894010870B54FF4B011466805461E4857
:10546800FFF7D0FC18B16FF00404204670BD1B484C
:105478004FF4B011FFF7C6FC0028F4D118491948B9
:105488000AF0BAFE284600F00BF9044628B1164A7D
:10549800164801210FF0FBF8E7E7306812F093FC9B
:1054A80038B9134A114801210FF0F1F86FF01204CE
:1054B800DBE7337E23B1F06812F085FC0028F0D0DA
:1054C8002846FFF737FF051ECFDA0A4A07480121A9
:1054D8000FF0DDF82C46C8E7E4930108DC930108D7
:1054E80019540008581000202DB80108E08D010853
:1054F8004BB8010860B80108014B93F820007047C9
:105508004C10002008B503461048042B80F82030C2
:1055180011D005D8BBB10020FFF772FF00200EE0C4
:10552800053B022BF7D80020FFF762FFBDE80840D3
:105538000120FFF765BF0020FFF762FF0120BDE8EB
:105548000840FFF755BF0FF0E7FBE4E74C100020D9
:10555800014BD861704700BF4C10002008B50448C3
:105568000FF0BFFB024A012382F8203008BD00BFBC
:105578004C10002008B5054800F080F800B908BDB7
:1055880000210A200BF0B8FFF5E700BF4C100020FF
:1055980070B58CB00E46DDE91041CDE9063104AB9B
:1055A800CDE90402CDE90862009308AA0223054662
:1055B800CDE90A41CDE9022301930FF0C5FC10485B
:1055C800AEB9A4B983680F491E686A462346B04736
:1055D8000028034604DA0C4A0C4801210FF05FF852
:1055E8002B78842B01D0FFF7C5FF0CB070BD836802
:1055F80004491C68024802AB6A46A047E8E700BFB6
:1056080064880108C093010883B80108E08D010887
:1056180030B5124887B000F039F8C023ADF804302F
:1056280001AB029302230393012402AB0493059474
:105638000B480C49836804AA1D680023A847031E69
:1056480006DA094A094821460FF029F807B030BDA3
:10565800FFF790FF014B83F82040F7E74C1000203C
:1056680064880108C093010883B80108E08D010827
:1056780001480FF04FBB00BF4C100020024B586987
:10568800C0F34000704700BF00040058034B4FF4BC
:105698008022C3F884213220FEF7D8BA00E100E066
:1056A800002208B511463220FEF700FB054AD2F861
:1056B800903043F48053C2F890303220FEF7C6FA97
:1056C800002008BD00080058074B08491A6843F233
:1056D800390001FB020018606FF00043B0FBF3F3E0
:1056E800C3EBC373C01A7047B80300206D4EC641A0
:1056F800014B1860704700BFB803002030B528B1CF
:1057080001444FF0FF33884201D1D84330BD10F82F
:10571800012B53400822054C43F30005013A2C4065
:1057280092B284EA5303002AF5D1ECE72083B8ED5E
:10573800044A13680BB100215972436110600FF0DD
:10574800BCBB00BF7010002037B5044601A80FF09D
:1057580018FA6CB1154D2A68134673B9636823604B
:10576800012323816AB9FFF78DFA2046FFF7E0FF8E
:1057780001A80FF00FFA03B030BD9C42F8D05B6966
:10578800EBE7FFF75FFA23682A681844206013687C
:105798009842EAD3536913B954616361E8E7196819
:1057A8008842F9D91A465B69F5E700BF70100020F6
:1057B800F8B5FFF76FFA1C4C0546FFF763FA236844
:1057C800A3B1471B1E462D1A716929B95A6922606F
:1057D800DA68197242B9FEE70A68BA428CBF5219F0
:1057E80000220A607669EFE7186990470026236867
:1057F8002BB9206880B9F8BD18699047F7E71D688C
:10580800FFF720FA8542F4D223685A692260DA68E1
:105818001E72002AF0D1FEE7437A002BEBD1BDE8D7
:10582800F8400FF04ABB00BF7010002037B5154D87
:10583800044601A80FF0A5F92B6803B124B901A803
:105848000FF0A8F903B030BD0022A34222720DD197
:10585800597A5C6941B15A7224B120462C600FF024
:105868002CFBECE7FFF7F8F92C60E8E71A46194635
:105878008C425B6901D15361E1E70A46002BF6D1FE
:10588800DDE700BF7010002007B5074B1B7840BA52
:10589800ADF804002BB9022201A940F2BC600FF058
:1058A800D9F903B000BD00BF1322002007B5074B8C
:1058B8001B7840BAADF804002BB9022201A940F2C6
:1058C800BE600FF0C7F903B000BD00BF132200206F
:1058D80010B50C4B1B7804469BB94FF4D7600FF0FA
:1058E800EBF9C4F3002100F0FE0001434FF4D76048
:1058F8000FF0C3F9E1B240F2B960BDE810400FF013
:10590800BCB910BD1322002013B504460FF04BF9A3
:10591800C4F34003C4F380025B0043EA8203C4F388
:105928000002134314F004048DF8073008BF084B35
:105938004FF001020DF107014FF0840008BF1C7001
:105948000FF06AF90020FFF7DDFD02B010BD00BFBF
:105958001122002010B50446FFF700FE2046FFF78D
:10596800F7FDFFF755FE00200FF00DFB0FF020F9B3
:105978000FF02AF9034B00221A70BDE810400120ED
:10598800FFF7C0BD11220020134B984207B50AD972
:105998004EF6E113ADF80430022201A998200FF069
:1059A8003BF903B000BD0D4B984202D94DF6D733F1
:1059B800F0E70B4B984202D94CF2C153EAE7094B86
:1059C800984202D948F27513E4E7074B9842E3D9A5
:1059D80046F66B73DEE700BF00E9A43580F8A9320C
:1059E8008044E52D000B6B1B40FC541937B5104D56
:1059F8002B7804461BB9FFF7C7FF01232B7043F62A
:105A0800095241F68463B4FBF2F102FB114403EB43
:105A18008433B3FBF2F3042203EB81331BBA0DEB9F
:105A28000201862001930FF0F7F803B030BD00BFE4
:105A38001122002007B5064B8DF8070018700122C7
:105A48000DF107018A200FF0E7F803B000BD00BF91
:105A580013220020014B1878704700BF1322002042
:105A680013B50023CDE900331F4B04461B7800789B
:105A7800834201D0FFF7DEFF23781BB1012B2ED024
:105A880002B010BD6268194BB3FBF2F31A0C8DF823
:105A980000201A0A8DF801208DF80230A268237BB5
:105AA8008DF8033043F60951637BB2FBF1F08DF8B2
:105AB800043001FB102241F6846303EB8233B3FB0D
:105AC800F1F303EB80331A0C5BBA8DF80520ADF8BF
